:100000000C942A010C9447010C9447010C9447016D
:100010000C9447010C9447010C9447010C94470140
:100020000C9447010C9447010C9447010C94470130
:100030000C9447010C9447010C9447010C94470120
:100040000C9447010C9447010C9447010C94470110
:100050000C9447010C9447010C9447010C94470100
:100060000C9447010C9447010C9447010C944701F0
:100070000C9447010C9447010C9447010C944701E0
:100080000C9447010C9447010C9447010C944701D0
:1000900001111611041107110A110D111011751318
:1000A000831391139F13A813B613BF13CD13D61345
:1000B000E413ED13FB1304141214084AD73B3BCE90
:1000C000016E84BCBFFDC12F3D6C74319ABD568357
:1000D0003DDA3D00C77F11BED9E4BB4C3E916BAA0F
:1000E000AABE000000803F0664EC1B3C04BC163E28
:1000F0003BE5B93CC93C37C29E5A3D660498083E70
:10010000EA69AAAA3E000000803F6E616E00696E37
:10011000660000407A10F35A00A0724E18090010D1
:10012000A5D4E80000E87648170000E40B5402006C
:1001300000CA9A3B000000E1F50500008096980097
:10014000000040420F000000A086010000001027C0
:1001500000000000E8030000000064000000000050
:100160000A00000000000100000000002C76D88882
:10017000DC674F0823DFC1DFAE59E1B1B796E5E395
:10018000E453C63AE651997696E8E6C28426EB89AE
:100190008C9B62ED407C6FFCEFBC9C9F40F2BAA54B
:1001A0006FA5F490055A2AF75C936B6CF9676DC1E3
:1001B0001BFCE0E40D47FEF520E6B500D0ED902EE7
:1001C0000300943577050080841E080000204E0A45
:1001D000000000C80C333333330F986E1283114183
:1001E000EF8D2114893BE65516CFFEE6DB18D1844E
:1001F0004B381BF77C1D901DA4BBE4242032847275
:100200005E228100C9F124ECA1E53D276364696E9B
:100210006F70737578585B004E414E494E49545982
:10022000494E46CDCCCC3D0AD7233C17B7D13877C1
:10023000CC2B329595E6241FB14F0A0000204100D7
:1002400000C84200401C4620BCBE4CCA1B0E5AAE21
:10025000C59D740011241FBECFEFCDBFDFE7DEBF09
:1002600019E6A0E0B0E6E2E2FCE502C005900D92DE
:10027000A635B107D9F72AE6A6E5B9E601C01D9271
:10028000A530B207E1F70E947E0C0C940F2E0C945F
:100290000000E0E0F6E087E0818381E082838083F4
:1002A000089582E08093B0008DE180930806089560
:1002B00085E08093B0008CE18093080608958093D8
:1002C000B0008EE180930806089581E080930A06CD
:1002D00080910D0680FFFCCFE0E0F6E081E08587AD
:1002E00080899189929582958F7089279F7089273F
:1002F00008958F929F92AF92BF92CF92DF92EF922A
:10030000FF920F93CF93DF93CDB7DEB76197CDBF49
:10031000DEBF20E0298B8EC13989313029F032309F
:1003200039F0198668E807C081E0898760E903C071
:1003300092E0998768E948E086E70E944D0B29839F
:100340003A834B835C836D837E838F839887298573
:10035000211174C0298100E30E942B2729873A8745
:1003600029813A814B815C816D817E818F81988565
:1003700008E30E942B27822E932EE0E0F0E62985E9
:100380003A85922F8827882A992A81869286298100
:100390003A814B815C816D817E818F81988500E2FD
:1003A0000E942B27822E932E20E040E050E060E058
:1003B00070E080E090E008E00E942B2729873A87D0
:1003C000982C882489859A85882A992A83869486F8
:1003D00029813A814B815C816D817E818F819885F5
:1003E00000E10E942B27822E932E20E040E050E077
:1003F00060E070E080E090E008E00E942B27298711
:100400003A87982C882429853A85822A932A8586DA
:10041000968620E03A8140E050E060E070E080E0C5
:1004200090E00E942B27822E932E29813A81922FD1
:100430008827882A992A8786908AF9C03985313099
:1004400009F07BC029813A814B815C816D817E817D
:100450008F81988500E30E942B27822E932E29817D
:100460003A814B815C816D817E818F81988508E323
:100470000E942B2729873A87E0E0F0E6982C882411
:1004800089859A85882A992A818A928A29813A813E
:100490004B815C816D817E818F81988500E20E9415
:1004A0002B27822E932E20E040E050E060E070E0A9
:1004B00080E090E008E00E942B2729873A87982C5B
:1004C000882429853A85822A932A838A948A2981D5
:1004D0003A814B815C816D817E818F81988500E1BD
:1004E0000E942B27822E932E20E040E050E060E017
:1004F00070E080E090E008E00E942B2729873A878F
:10050000982C882489859A85882A992A858A968AAA
:1005100020E03A8140E050E060E070E080E090E070
:100520000E942B27822E932E29813A81922F882791
:10053000882A992A878A908E7AC029813A814B81AC
:100540005C816D817E818F81988500E30E942B27DD
:1005500029873A8729813A814B815C816D817E812F
:100560008F81988508E30E942B27822E932EE0E04E
:10057000F0E629853A85922F8827882A992A818E44
:10058000928E29813A814B815C816D817E818F8140
:10059000988500E20E942B27822E932E20E040E0D7
:1005A00050E060E070E080E090E008E00E942B27DF
:1005B00029873A87982C882489859A85882A992AB8
:1005C000838E948E29813A814B815C816D817E81FD
:1005D0008F81988500E10E942B27822E932E20E0A8
:1005E00040E050E060E070E080E090E008E00E94D1
:1005F0002B2729873A87982C882429853A85822AAF
:10060000932A858E968E20E03A8140E050E060E0AB
:1006100070E080E090E00E942B27822E932E89814B
:100620009A81382F222728293929278F30A39989A1
:100630009F5F998B2989233008F46ECE6196CDBFD8
:10064000DEBFDF91CF910F91FF90EF90DF90CF90C1
:10065000BF90AF909F908F900895CF93DF93C0E0AD
:10066000D0E69FA94EA988AD440F440F20E2929F87
:10067000400D1124480F64EF86E70E94340B9BA9BC
:100680004CA98DA9440F440F20E2929F400D1124E4
:10069000480F65EF86E70E94340BDF91CF910895F4
:1006A00063EF86E70E94090BE0E0F0E6982F96954D
:1006B000969596959F7091AF8F7082AF08950F9326
:1006C000CF93DF9302C00E9450038091396088234A
:1006D00021F080913A608111F6CF43E067EF86E721
:1006E0000E944D0B04E00E942B27C0E0D0E62DA312
:1006F0003EA34FA358A743E06AEF86E70E944D0B45
:100700000E942B2729A33AA34BA35CA3DF91CF918F
:100710000F9108954F925F926F927F928F929F9266
:10072000AF92BF92CF92DF92EF92FF92CF93DF937F
:10073000C0E0D0E689A09AA0ABA0BCA0B501A401FE
:10074000689412F875956795579547951694D1F763
:1007500049845A84612C712CD301C201880F991FDE
:10076000AA1FBB1F9A01AB01281B390B4A0B5B0B5D
:10077000AB85BC850E94DE256B017C010B2EBBE0A6
:10078000F594E794D794C794BA95D1F7B02DD501D5
:10079000C401689413F8B595A79597958795169415
:1007A000D1F7BC01CD0164197509860997099B0130
:1007B000AC010E9464259B01AC01012E1CE0559503
:1007C0004795379527951A95D1F7102DAD85BE859C
:1007D0000E94DE25DC01CB01072E7EE0B595A795B2
:1007E000979587957A95D1F7702D8C0D9D1DAE1D2F
:1007F000BF1D89A79AA7ABA7BCA76C017D01CC0C34
:10080000DD1CEE1CFF1CCC0CDD1CEE1CFF1CC80EFE
:10081000D91EEA1EFB1E80E8C80ED11CE11CF11C8B
:10082000CD2CDE2CEF2CFF24E7FCFA94CDA6DEA61F
:10083000C701B6010E94931F20E030E048EC52E46B
:100840000E94E31E69837A838B839C83C601DF91B8
:10085000CF91FF90EF90DF90CF90BF90AF909F909F
:100860008F907F906F905F904F9008952F923F925E
:100870004F925F926F927F928F929F92AF92BF92B0
:10088000CF92DF92EF92FF920F931F93CF93DF935C
:10089000CDB7DEB76097CDBFDEBF409029605090E6
:1008A0002A6060902B6070902C60D301C201BB0F56
:1008B000880B982FDC0189839A83AB83BC83242D1A
:1008C000352D462D572D6981762F862F962F345F33
:1008D0004140510961097109810991092D833E83C4
:1008E0004F835887262E372E882E992EA22EB32E70
:1008F000C42ED52EE62EF72E082F192F0E94E6259E
:10090000B0901A60A09019601B2D110F110BC12E11
:10091000D12EE12EF12E012F0E94E62529873A875C
:100920004B875C876D877E878F87988BB090186028
:10093000A09017601B2D110F110BC12ED12EE12E8F
:10094000F12E012F2D813E814F815885622D732D0F
:10095000882D992D0E94E62501E10E941027A22EE4
:10096000B32EC42ED52EE62EF72E082F192F29854B
:100970003A854B855C856D857E858F8598890E943B
:100980004727822E932E242E352EB62FA72FF82FF1
:10099000E92F3091166020911560932F990F990BD4
:1009A000492F592F692F792F892F03E20E94102791
:1009B000A22EB32EC42ED52EE62EF72E082F192FD9
:1009C000282D392D422D532D6B2F7A2F8F2F9E2FAF
:1009D0000E9447272D833E834F83588769877A87F4
:1009E0008B879C87242D352D462D572D6981762F99
:1009F000862F962F345F41405109610970488F4F0F
:100A00009F4FE0910F60F09110601F01AE2EB32C4C
:100A1000C12CD12CE12CF12C00E010E00E94E62545
:100A200001E20E942927422E532E642E752E862E17
:100A3000972E282E392EA0E00E94592709F420C1B4
:100A400040912560509126606091276070912860E8
:100A500080E090E0A0E1B0E0841B950BA60BB70B03
:100A60006C017D01FF0CCC08DC2C7601282F392F7E
:100A70004A2F5B2F6C2D7C2D8C2D9C2D0FE10E941D
:100A80001027AD80BE80CF80D884E984FA840B859E
:100A90001C850E9450270F2EF5E3AF2EF02D0F2E50
:100AA000FCE0BF2EF02DC12CD12CE12CF12C00E06C
:100AB00010E00E94E625A42CB52CC62CD72CE82CDF
:100AC000F92C022D132D0E94412629833D834E834C
:100AD0005F83688779878A879B87F0912060A091E0
:100AE0001F60EF2FEE0FEE0B0DE00E942927222E44
:100AF000332E442E552E662E772E882E992EA22E1A
:100B0000B32EC42ED52EE62EF72E082F192F2A2FFE
:100B10003F2F4E2F5E2F6E2F7E2F8E2F9E2F0E94E7
:100B2000E625A22EB32EC42ED52EE62EF72E082FA4
:100B3000192F222D332D442D552D662D772D882DDF
:100B4000992D0E94E62509E10E942927522E432E65
:100B5000342E252E6C877D878E879F87B0901E60F0
:100B6000A0901D601B2D110F110BC12ED12EE12E57
:100B7000F12E012F29813D814E815F816885798524
:100B80008A859B850E94E62503E10E942927622E23
:100B9000732E842E952EB62FA72FF82FE92F29819B
:100BA0003D814E815F81688579858A859B85A52CED
:100BB000B42CC32CD22CEC84FD840E851F850E949E
:100BC0004727A22EB32EC42ED52EE62EF72E082FA1
:100BD000192F262D372D482D592D6B2F7A2F8F2F1A
:100BE0009E2F0E94472708E00E942927822E932EDD
:100BF000642E752EB62FA72FF82FE92F30911C6089
:100C000020911B60932F990F990B492F592F692F12
:100C1000792F892F04E00E941027A22EB32EC42E14
:100C2000D52EE62EF72E082F192F282D392D462DDB
:100C3000572D6B2F7A2F8F2F9E2F0E944727022F21
:100C4000132FE42EF52E0E948B1F20E030E048EC9D
:100C500056E40E94E31E60930560709306608093E3
:100C6000076090930860602F712F8E2D9F2D009349
:100C70002F6010933060E0923160F092326004C0D7
:100C800060E070E080E090E06096CDBFDEBFDF9175
:100C9000CF911F910F91FF90EF90DF90CF90BF9079
:100CA000AF909F908F907F906F905F904F903F900C
:100CB0002F9008956BE080E890E00E94092E63E099
:100CC00080E690E00E94092E8091650080FDFCCFB7
:100CD00008956BEE73E60E946A28009749F127E4B5
:100CE00030E63F932F9325E430E63F932F9323E4A0
:100CF00030E63F932F9321E430E63F932F932FE389
:100D000030E63F932F932DE330E63F932F932BE371
:100D100030E63F932F932DEE33E63F932F939F932F
:100D20008F930E94E5288DB79EB742968DBF9EBFD8
:100D30006BEE73E680E090E00E946A280097A1F0D5
:100D40000E94652720E030E048EC52E40E94C52074
:100D500020E030E040E05FE30E94431E0E945C1F01
:100D600060936060709361606BEE73E680E090E08A
:100D70000E946A280097A1F00E94652720E030E0D9
:100D800048EC52E40E94C52020E030E040E05FE300
:100D90000E94431E0E945C1F60935C6070935D60C4
:100DA0006BEE73E680E090E00E946A28009751F0B5
:100DB0000E9465276093496070934A6080934B60FE
:100DC00090934C606BEE73E680E090E00E946A289E
:100DD000009751F00E94652760934D6070934E60BC
:100DE00080934F60909350606BEE73E680E090E0EC
:100DF0000E946A28009731F00E9469278093516011
:100E0000909352606BEE73E680E090E00E946A2857
:100E10000097A1F00E94652720E030E048EC52E402
:100E20000E94C52020E030E040E05FE30E94431EC6
:100E30000E945C1F60935E6070935F6008950F93E3
:100E40001F93CF93DF93CDB7DEB7EC97CDBFDEBF57
:100E5000FE0131968CE3DF011D928A95E9F710E0DF
:100E600000E00E9463109091556091111FC01130F5
:100E700079F48E3329F4CE0101960E94690629C0C7
:100E8000E1E0F0E0EC0FFD1FE00FF11D80830F5F4C
:100E90008C3309F411E080915360813011F70E9486
:100EA000420FEBE3F0E6118E108EDBCFEBE3F0E6C2
:100EB000128E818D8A3020F48F5F8093546009C038
:100EC00080915360811102C00E94420F81E08093A3
:100ED0005360EC96CDBFDEBFDF91CF911F910F9194
:100EE0000895AC0183709927892BA1F49A01369556
:100EF000279536952795ABE7B4E10E94C4259695D2
:100F0000879564E6689F9001699F300D1124421710
:100F10005307D1F49A01329522952F7023273F7001
:100F20002327AEE3BAE00E94C42520E931E0BC01EA
:100F3000629FC001639F900D729F900D112448170E
:100F4000590721F481E0089581E0089580E0089533
:100F5000BF92CF92DF92EF92FF920F931F93CF93A6
:100F6000DF93CDB7DEB76897CDBFDEBF6C0198E1E8
:100F7000E3EDF3E6DE01119601900D929A95E1F70B
:100F8000C114D10471F1662371F16D3070F5F22E48
:100F9000B42E162FC6010E947107882321F08DE11F
:100FA00090E08B839C83BB2011F14B2D50E0E12F0F
:100FB000F0E03197EE0FFF1F81E090E08C0F9D1F56
:100FC000E80FF91F808191818417950794F097E1CC
:100FD0009F1588F00C3388F48BE38E1580F481E044
:100FE0000FC081E00DC081E00BC081E009C081E04D
:100FF00007C081E005C081E003C081E001C080E05E
:101000006896CDBFDEBFDF91CF911F910F91FF900A
:10101000EF90DF90CF90BF9008959CE0980F81E013
:10102000993108F480E008959C012C503E4F81E0F6
:101030002D31354208F480E00895CF92DF92EF928F
:10104000FF926B017C0120E030E044EB52EC0E9407
:10105000DE1E882364F020E030E044EB52E4C70158
:10106000B6010E94B820181624F481E003C081E084
:1010700001C080E0FF90EF90DF90CF900895CF9275
:10108000DF92EF92FF926B017C0120E030E044E3BD
:1010900053EC0E94DE1E882364F020E030E044E33D
:1010A00053E4C701B6010E94B820181624F481E069
:1010B00003C081E001C080E0FF90EF90DF90CF900F
:1010C0000895CF92DF92EF92FF920F931F93C72E56
:1010D000D82EE92EFF248B019C01112722273327CC
:1010E0004D2D50E0FA01ED5FFA49E081B701A6010C
:1010F0005527662777274E27FA01ED5FFA49408189
:1011000050E060E070E0041715072607370711F478
:10111000C60102C080E090E01F910F91FF90EF9018
:10112000DF90CF900895CF93DF93CDB7DEB72997A7
:10113000CDBFDEBFECE5F0E68085918599838A839B
:10114000868197819B838C83828193819D838E830B
:10115000809189698F8380915E6990915F698770C2
:1011600099279C01322F22273295307F82859385E3
:101170009F70822B932B9887898720E030E08FEF38
:101180000FC0A1E0B0E0AC0FBD1FA20FB31F9C9138
:10119000E82FE927F0E0ED5FFB4980812F5F3F4FAB
:1011A0002930310570F32996CDBFDEBFDF91CF9195
:1011B00008954F925F926F927F928F929F92AF921B
:1011C000BF92CF92DF92EF92FF92CF93DF93CDB792
:1011D000DEB72897CDBFDEBF60915C6070915D6027
:1011E00080E090E00E94911F20E030E048EC52E463
:1011F0000E94E31E6B017C0125E33AEF4EE85CE3BD
:101200000E94C5204B015C0160915A6070915B6047
:10121000072E000C880B990B0E94931F20E73DE6D8
:1012200042EC5AE40E94E31E0E94AF1E9B01AC01F7
:10123000C501B4010E94431E4B015C0120E030E077
:10124000A901C701B6010E94B82018160CF087C08A
:1012500060910560709106608091076090910860D0
:1012600020E030E84CE754E40E94E31E2B013C01EF
:1012700060916C6070916D6080916E6090916F6014
:1012800020E030E848E853E40E94431E9B01AC0193
:1012900060E070E88DE893E40E94E31E69837A833E
:1012A0008B839C836091706070917160809172609B
:1012B0009091736020E030E048EC52E40E94E31E1D
:1012C0006D837E838F8398872FE135E843EA50E46E
:1012D000C701B6010E94431E9B01AC016DEC7CEC82
:1012E00084E291E40E94E31E25E33AEF4EE85CE3DA
:1012F0000E94C5209B01AC01C501B4010E94431EA0
:101300000E945A216B017C0129813A814B815C81C9
:10131000C301B2010E94E31E4B015C0123EB3BE7DA
:1013200042E75BE36D817E818F8198850E94C520B5
:1013300020E030E040E85FE30E94431E20E73EECFF
:1013400048E85CE30E94C5209B01AC01C501B401E3
:101350000E94C520A70196010E94E31E03C060E021
:1013600070E0CB0120E030E048EC52E40E94C52060
:101370002896CDBFDEBFDF91CF91FF90EF90DF9039
:10138000CF90BF90AF909F908F907F906F905F9025
:101390004F900895CF93DF93C0915C60D0915D60D2
:1013A000209771F00E94D9080E945C1FC60FD71FBA
:1013B000ECE5F0E6C683D7838481958180879187A9
:1013C000DF91CF91089580E00E945F010E94650146
:1013D0008F3F9F4009F044C081E00E945F010E945E
:1013E00065018F3F9F4031F582E00E945F010E94BE
:1013F00065018F3F9F40B9F485E00E945F010E9424
:101400006501BC0180E090E00E94911F20E030E483
:101410004CE95FE30E94C5200E945C1F60936660F8
:101420007093676008950E94650180936660909351
:10143000676008950E94650196958795BC0180E0DC
:1014400090E00E94911F20E030E040E05FE30E94C6
:10145000431E0E945C1F60936660709367600895EE
:101460000E9465019695879596958795BC0180E0C9
:1014700090E00E94911F20E030E040E05FE30E9496
:10148000431E0E945C1F60936660709367600895BE
:10149000E0EEF5E081E182831682E0E0F4E08EED9B
:1014A000818390E2928388E0848B858BE0E6F4E090
:1014B00020E62183958390E89683868B878BE0EAEC
:1014C000F4E09FE09183958390E79283848B858BF2
:1014D000868BE0E4F4E09089987F908B908994600B
:1014E000908B9089977F908B9189987F918B918930
:1014F0009460918B9189977F918B9289987F928B41
:1015000092899460928B9289977F928B81830895C0
:10151000E0E0F9E082E0808385E0868381E08383F8
:101520008583089590E0880F991F862B8093070983
:1015300040E251EA67E070E009C041505109610999
:10154000710921F483E08093040905C080910509A5
:10155000807C99F380E09091050994FD81E0909161
:1015600005099C7009F082E0882319F093E09093BC
:101570000409809358690895282F9091050994FDD6
:1015800002C080E001C081E0909105099C7009F0E3
:1015900082E0882319F093E090930409811114C02C
:1015A0002093080940E251EA67E070E009C0415029
:1015B00051096109710921F483E08093040904C091
:1015C0009091050996FFF3CF809358690895DB0148
:1015D00040E251EA67E070E009C0415051096109F9
:1015E000710921F493E09093586904C09091050922
:1015F000907A99F39091586991110AC0882311F05B
:1016000082E001C084E0E0E0F9E0848380858C938F
:1016100008950F931F93CF93DF931F92CDB7DEB73B
:10162000182F062F198260E00E94920A811110C0C3
:10163000802F0E94BC0A81110BC061E0812F0E94A3
:10164000920A811105C0BE016F5F7F4F0E94E70AB9
:10165000E0E0F9E084818360848389810F90DF91E9
:10166000CF911F910F910895CF93DF93C62FD42F61
:1016700060E00E94920A811108C08C2F0E94BC0A6F
:10168000811103C08D2F0E94BC0AE0E0F9E0848143
:1016900083608483DF91CF9108954F925F926F9220
:1016A0007F928F929F92AF92BF92CF92DF92EF92F2
:1016B000FF920F931F93CF93DF931F92CDB7DEB7A7
:1016C0009FEF940F983008F07BC0442EF62E182F11
:1016D00060E00E94920A811154C08F2D0E94BC0AC2
:1016E000811158C061E0812F0E94920A8823C9F1BC
:1016F000512C612C712CC12CD12CE12CF12C10E03F
:1017000051C0198281E0A81AB10881E08A149B04B3
:101710000CF080E0BE016F5F7F4F0E94E70A80916E
:10172000586981113FC02981A818B908AA0CBB1CAF
:10173000AA0CBB1CAA0CBB1C30E040E050E060E0EF
:1017400070E090E00A2D0E941027522A632A742A22
:10175000C52AD62AE72AF82A192B8FEF881A980A61
:101760000AC0812C912C512C612C712CC12CD12CB4
:10177000E12CF12C10E0A42CB12C8A149B040CF267
:1017800011C0512C612C712CC12CD12CE12CF12CCD
:1017900010E008C0512C612C712CC12CD12CE12CF3
:1017A000F12C10E0E0E0F9E0848183608483252D52
:1017B000362D472D5C2D6D2D7E2D8F2D912F08C040
:1017C00020E030E040E050E060E070E080E090E059
:1017D0000F90DF91CF911F910F91FF90EF90DF90CD
:1017E000CF90BF90AF909F908F907F906F905F90C1
:1017F0004F900895CF93DF93CDB7DEB72797CDBF36
:10180000DEBF81E0898382E08A8384E08B8388E085
:101810008C8380E18D8380E28E8380E48F8380E0FF
:101820002DC0682F70E0E1E0F0E0EC0FFD1FE60F47
:10183000F71F40814093A60490E01BC03091A8049C
:10184000E5E0F0E0EC0FFD1FE90FF11D20812323FF
:1018500079F4E1E0F0E0EC0FFD1FE60FF71F2081C7
:101860002093A504282F220F820F890F8F5F09C0B4
:101870009F5F933018F34093A5048F5F843088F204
:1018800080E02796CDBFDEBFDF91CF910895CF9343
:101890000E94FA0BC82F80915B69C8131FC0CC232C
:1018A000E9F08091596990915A690A968093596933
:1018B00090935A69C29779F40E94420FECE5F9E6D9
:1018C00084E18C0F8183108283E390E080935969D7
:1018D00090935A6909C0C0935C6906C01092596917
:1018E00010925A69C0935C69C0935B698FE59AEE68
:1018F0000197F1F700C00000CF910895CF93DF93D7
:10190000CDB7DEB72E97CDBFDEBF0E945A060E942C
:10191000480A0E94880A0E9449010E9401100E9400
:1019200033100E94FB0EE8E6F0E61282118281E09D
:10193000808313820E94A60DE0E0F0E685E087AB8D
:1019400086AB83E080AF13AA84E084AB91E095ABD3
:101950000E942D030E9479010E94420F0E941F07DE
:101960000E94CA090E945F030E948A030E943604F3
:1019700085EF0E94BA0D0E94A40E83EF0E94BA0D5B
:101980000E94A40E0E94AC1081E00E9419110E94D6
:10199000C61080E00E9419110E94E3090E94470CC2
:1019A0000E943D1E0E94930890916660F0906760CF
:1019B0000EE519E6F801408151810F2EF9E82F2E2E
:1019C000F9E63F2EF02DF10120813181A0915E607A
:1019D000B0915F60E0916260F091636060916460DB
:1019E000709165601F928F93FF929F93CA01992710
:1019F0009F938F93C90199279F938F93BF93AF9321
:101A0000FF93EF937F936F9383E096E69F938F937B
:101A10001F920E947A100F2EF0E0EF2EF0E6FF2EBC
:101A2000F02DF701618172818381948120E030E0A3
:101A300048EC52E40E94C52069837A838B839C839F
:101A4000F70145805680678070840F2EF8E6EF2EF0
:101A5000F0E6FF2EF02DF701608571858285938574
:101A600020E030E040E251E40E94C5206D837E8397
:101A70008F839887F701648175818681978120E043
:101A800030E048EC52E40E94C52069877A878B8752
:101A90009C87F0916660FD87809167608E87F80172
:101AA00080809180F101A080B180E4EBF9E60181B2
:101AB0003080C0905E6020905F60E0906260D09067
:101AC0006360F09064601091656069817A818B81B8
:101AD0009C810E94551F7F936F93C301B2010E94A6
:101AE0005C1F7F936F936D817E818F8198850E94AB
:101AF0005C1F7F936F9369857A858B859C850E9497
:101B0000551F7F936F93FE85FF938D858F93C4013F
:101B100099279F938F93C50199279F938F931F9226
:101B20000F931F923F922F92CF92DF92EF921F93CB
:101B3000FF9282E296E69F938F931F920E947A1003
:101B400080E480930704CDBFDEBF08CFE8E6F0E66F
:101B50009281418180812381440F440F490F880F76
:101B6000480F80E4289F400D112466EE80E40E9417
:101B7000340B0895CF92DF92EF92FF920F931F9351
:101B8000CF93DF931F92CDB7DEB7182F833E11F0AE
:101B9000853E51F443E0612F80E40E944D0B622F9B
:101BA000732F842F952FC6C0833F19F0853F09F00E
:101BB000B3C060E080E40E94920A8111B2C0812F1C
:101BC0000E94BC0A8111B2C020EA2A95F1F783E095
:101BD0008093040980916A608038D9F0813819F0C7
:101BE0008130E9F529C0133F51F48FE39EEC20E0EA
:101BF000815090402040E1F700C0000045C08FE3D5
:101C000099E121E0815090402040E1F700C00000C0
:101C10003BC0133F51F48FE396E223E081509040A4
:101C20002040E1F700C000002FC08FEE92ED019739
:101C3000F1F700C0000028C0133F51F49FE72CE9E2
:101C400081E0915020408040E1F700C000001CC0BE
:101C50008FEB9DE50197F1F700C0000015C0133F21
:101C600051F49FEB29E386E0915020408040E1F75A
:101C700000C0000009C09FEB2FE182E0915020409E
:101C80008040E1F700C0000061E080E40E94920A19
:101C9000882381F160E070E080E090E04BC0198221
:101CA00081E0023011050CF080E0BE016F5F7F4FD4
:101CB0000E94E70A80915869811124C0898190E0CF
:101CC000A0E0B0E022E030E0201B310B220F331FF8
:101CD000220F331F220F331F04C0880F991FAA1F22
:101CE000BB1F2A95D2F7C82AD92AEA2AFB2A0F5FF6
:101CF0001F4F05C000E010E0C12CD12C760103304D
:101D000011056CF2E0E0F9E08481836084836C2D3E
:101D10007D2D8E2D9F2D0EC060E070E080E090E064
:101D200009C060E070E080E090E004C060E070E036
:101D300080E090E00F90DF91CF911F910F91FF9085
:101D4000EF90DF90CF9008950E946108AC0160E0B1
:101D500070E081FF23C0CB01BA0162507109810993
:101D600091090E94911F20E030E040E857E30E9473
:101D7000C52020E030E04AEF52E40E94C52020E078
:101D800030E040EC50E40E94421E6093706070931B
:101D9000716080937260909373601FC0BC0180E09B
:101DA00090E00E94911F20E030E040E857E30E945D
:101DB000C52022E538EB4FE253E40E94C52026E619
:101DC00036E64BE352E40E94421E60936C607093CF
:101DD0006D6080936E6090936F6080E00895482FEF
:101DE00060E08CE30E94340B0895482F60E48CE39C
:101DF0000E94340B0895CF9360E08CE30E94920A16
:101E0000C0E008C0EC2FF0E0E256FC4980810E945F
:101E1000BC0ACF5FCA31B0F3CF9108951F93CF931F
:101E2000DF93D82F80EE8D0F803628F0D03B19F04D
:101E3000D03C08F4D0E2D03B21F0D03C20F410E2BA
:101E400003C010E501C01FE5C0E013C08D2F90E076
:101E5000811B9109FC01EE0FFF1FEE0FFF1FE80F22
:101E6000F91FE758FF49EC0FF11D80810E94F50E24
:101E7000CF5FC53058F380E00E94F50EDF91CF911F
:101E80001F9108950F931F93CF93DF9300E010E00D
:101E900016C080EB800F0E94EF0E80E00E94EF0ED4
:101EA00080E10E94EF0EC0E0D0E004C080E00E941C
:101EB000F50E2196C038D105CCF30F5F1F4F0830C7
:101EC00011053CF3DF91CF911F910F9108950F936E
:101ED0001F93CF93DF938C01D62FC0E005C00E94E3
:101EE0000E0F0F5F1F4FCF5FF8018081882339F0FD
:101EF000CD17A8F304C080E20E940E0FCF5FCD176C
:101F0000D0F3DF91CF911F910F9108950F931F93FD
:101F1000CF93DF938C01262FC42F80E890E0841BA1
:101F2000910966E070E00E948825D62F822F806B91
:101F30000E94EF0E8C2F82958F7080610E94EF0EB1
:101F40008C2F8F700E94EF0E6D2FC8010E94670FBB
:101F5000DF91CF911F910F910895AC0190E001C0E6
:101F60009F5FFA01E90FF11D20812111F9CF892F1F
:101F7000880F980F292F220F613019F0623069F015
:101F80000FC080E890E0AC01421B5109CA019923BF
:101F90000CF4019695958795089580E8821B089525
:101FA00080E008951F93CF93DF93EC01162F642FE9
:101FB0000E94AD0F482F612FCE010E94860FDF9146
:101FC000CF911F910895CF93DF93CDB7DEB7E297FE
:101FD000CDBFDEBF9E01255C3F4F4FA958AD62E3E8
:101FE00070E0CE0101960E94FE284AAD69ADCE0197
:101FF00001960E94D20FE296CDBFDEBFDF91CF9156
:102000000895E0E0F8E080E490E08087918781E047
:10201000858382EC868383E087830895909104080A
:1020200095FFFCCF8093020808950F931F93CF93E1
:10203000DF938C01C0E0D0E007C0F801EC0FFD1F7A
:1020400080810E940E102196F80101900020E9F78E
:102050003197E01BF10BCE17DF0778F3DF91CF91BB
:102060001F910F910895E0E2F8E08DE490E0808701
:10207000918782EC868383E087830895909124087A
:1020800095FFFCCF8093220808950F931F93CF9361
:10209000DF938C01C0E0D0E007C0F801EC0FFD1F1A
:1020A00080810E943E102196F80101900020E9F7FE
:1020B0003197E01BF10BCE17DF0778F3DF91CF915B
:1020C0001F910F91089580E88093240880E291EA9F
:1020D000A7E0B0E008C00197A109B10921F483E0AD
:1020E0008093556004C0209124082223A4F7809196
:1020F000200808951F93CF93DF93CDB7DEB7C05864
:10210000D109CDBFDEBFCA57DF4F1881C658D040B6
:102110009E0127573F4FC957DF4F48815981C75804
:10212000D04060E870E0CE0101960E94FE281111B7
:1021300005C0CE0101960E94151006C0113021F491
:10214000CE0101960E944510C058DF4FCDBFDEBFC3
:10215000DF91CF911F9108950E9451010E94650166
:10216000BC0180E090E00E94911F26EA3BE944EC2C
:102170005BE30E94C52020E030E040E05FE30E9486
:10218000431E0E945C1F6093B46908950E94580129
:102190000E9465019C01243281E0380718F41092F6
:1021A000B56908952C3D8EE0380720F087E08093D4
:1021B000B5690895E9E4F2E0C9018C5D9E4FBF0165
:1021C0000E9474256E9FC0016F9F900D1124AC0179
:1021D000425951092417350738F08E569F4F821700
:1021E000930710F06093B5690895E0915E69F091EE
:1021F0005F693197E730F105B0F4E85BFF4F0C946D
:10220000BE2583E596E6089589E596E608958CE572
:1022100096E608958FE596E6089582E696E6089597
:1022200085E696E6089588E696E6089586E596E6BC
:102230000895FF920F931F93CF93DF93CDB7DEB72F
:102240002897CDBFDEBF282F813019F409E819E6A1
:1022500002C00EE519E6213019F48091B46902C07C
:102260008091B56990E0D8018D939C9311979A96CF
:10227000EC919A97F0E03196EE0FFF1FE00FF11FFF
:10228000808391839A968C9190E0019664E170E04E
:102290000E948825382FF80182A7213011F50FC040
:1022A000E82FF0E03196EE0FFF1FE00FF11F2081C5
:1022B0003181420F531F611D711D8F5F04C080E08B
:1022C00040E050E0BA01843158F3CB01BA0124E177
:1022D00030E040E050E00E949C25D8012D933C93D3
:1022E00050C0FE01319688E0DF011D928A95E9F722
:1022F00080E014C0E82FF0E03196EE0FFF1FE00FF2
:10230000F11F9081983048F4E1E0F0E0EC0FFD1F00
:10231000E90FF11D90819F5F90838F5F843150F3AF
:10232000498121E0F12C26C0E1E0F0E0EC0FFD1F37
:10233000E20FF11D80814817C0F048131AC0832FA7
:1023400090E0439664E170E00E948825FC01FF273D
:102350003196EE0FFF1FE00FF11F60817181822F18
:1023600090E06817790729F403C0482FF22E01C0C6
:10237000F22E2F5F2830C0F28F2D90E0F80180837D
:1023800091832896CDBFDEBFDF91CF911F910F9132
:10239000FF9008959F92AF92BF92CF92DF92EF92FB
:1023A000FF920F931F93CF93DF937C01EB018A0180
:1023B000FC01C584D484B385A285B184A0847781CF
:1023C00066815581448133812281918180811F9270
:1023D0001F921F92CF921F92DF921F92BF931F9264
:1023E000AF931F92BF921F92AF921F927F931F9243
:1023F0006F931F925F931F924F931F923F931F9271
:102400002F931F929F931F928F93DD24D394DF927B
:102410001F928BE696E69F938F930E94E30FBD84F5
:10242000CC84BB85AA85F985E8857F816E815D8135
:102430004C813B812A81A98098808DB79EB7829676
:102440008DBF9EBF1F92BF921F92CF921F92BF93CC
:102450001F92AF931F92FF931F92EF931F927F9350
:102460001F926F931F925F931F924F931F923F9300
:102470001F922F931F92AF921F929F92DF92DF9233
:102480008FE896E69F938F930E94E30FF70186856E
:102490002DB73EB7205E3F4F2DBF3EBF811102C01A
:1024A0006BE201C06DE2F7018189811102C07BE21C
:1024B00001C07DE2F70155894489338922899089D9
:1024C00087851F925F931F924F931F923F931F9296
:1024D0002F931F927F931F929F931F928F931F9210
:1024E0006F93DD24D394DF9282E08F9383EB96E6A3
:1024F0009F938F930E94E30F7D896C895B894A8942
:10250000398928899F858E851F927F931F926F93AB
:102510001F925F931F924F931F923F931F922F938F
:102520001F929F931F928F93DF9283E08F9381ED91
:1025300096E69F938F930E94E30FF70186892DB74C
:102540003EB7285D3F4F2DBF3EBF811102C06BE2F9
:1025500001C06DE2F701548D438D328D218D908D38
:1025600087891F925F931F924F931F923F931F92F1
:102570002F931F929F931F928F931F926F93689434
:10258000DD24D1F8DF9284E08F938FEE96E69F935F
:102590008F930E94E30F6C8D5B8D4A8D398D288D52
:1025A0009F898E891F926F931F925F931F924F9303
:1025B0001F923F931F922F931F929F931F928F936F
:1025C000DF9285E08F938CE297E69F938F930E9432
:1025D000E30FF701858D2DB73EB72C5D3F4F2DBF23
:1025E0003EBF811102C07BE201C07DE2F70164A120
:1025F00053A142A131A120A1978D868D1F926F9387
:102600001F925F931F924F931F923F931F922F939E
:102610001F929F931F928F931F927F936894FF2422
:10262000F1F8FF9286E08F938CE097E69F938F936B
:102630000E94E30F7CA16BA15AA149A138A12F8D63
:102640009E8D8D8D1F927F931F926F931F925F932C
:102650001F924F931F923F931F922F931F929F930E
:102660001F928F93FF9287E08F938AE297E69F9362
:102670008F930E94E30F2DB73EB7285D3F4F2DBFCC
:102680003EBF80E01AC0F8019081891310C08532E6
:1026900030F49EE5FE01E80FF11D90830DC0E82F98
:1026A000F0E03197EC0FFD1F93E7908305C090E2B7
:1026B000FE01E80FF11D90838F5F863220F3DF91DA
:1026C000CF911F910F91FF90EF90DF90CF90BF902F
:1026D000AF909F90089590E08E30910508F0ABC0C8
:1026E000FC01E15BFF4F0C94BE2580913B60909113
:1026F0003C6068EE73E00E948825CB016AE070E0E0
:102700000E948825089580913B6090913C6064E62A
:1027100070E00E948825CB016AE070E00E94882565
:10272000089580913B6090913C602AE030E0B901CF
:102730000E948825CB01B9010E94882508958091C7
:102740003B6090913C606AE070E00E9488250895AB
:1027500080913D6090913E602AE030E0B9010E9496
:102760008825CB01B9010E948825089580913D609C
:1027700090913E606AE070E00E9488250895809103
:102780003F60909140602AE030E0B9010E948825C6
:10279000CB01B9010E948825089580913F609091F6
:1027A00040606AE070E00E94882508958091416051
:1027B000909142602AE030E0B9010E948825CB0167
:1027C000B9010E94882508958091416090914260EE
:1027D0006AE070E00E94882508958091436090919E
:1027E00044602AE030E0B9010E948825CB01B9019C
:1027F0000E948825089580914360909144606AE02A
:1028000070E00E948825089580914560909146600F
:102810002AE030E0B9010E948825CB01B9010E946D
:102820008825089580914560909146606AE070E047
:102830000E948825089580E00895813051F018F0B5
:102840008230D1F027C080915260881F8827881F6E
:102850000895809151609091526099231CF4919554
:10286000819591092AE030E0B9010E948825CB01C9
:10287000B9010E948825089580915160909152601D
:1028800099231CF49195819591096AE070E00E946A
:102890008825089580E00895823029F128F488235E
:1028A00049F0813069F053C0833081F1843009F4FC
:1028B00040C04DC080915B60881F8827881F0895A5
:1028C00080915A6090915B6099231CF49195819559
:1028D000910968EE73E00E948825CB016AE070E000
:1028E0000E948825089580915A6090915B60992399
:1028F0001CF491958195910964E670E00E94882509
:10290000CB016AE070E00E948825089580915A60AA
:1029100090915B6099231CF49195819591092AE02F
:1029200030E0B9010E948825CB01B9010E948825B9
:10293000089580915A6090915B6099231CF4919561
:10294000819591096AE070E00E948825089580E0F1
:102950000895CF92DF92EF92FF920F931F93CF9340
:10296000DF93D82FCB01BA01C22F21110BC0C1E0D8
:1029700020E030E0A9010E94DE1E88230CF0C0E0B8
:102980008C2F8CC06B017C01E894F7F8C701B6016D
:102990000E945C1F162F70E080E090E00E94931F61
:1029A0009B01AC01C701B6010E94421E20E030E449
:1029B0004CE156E40E94C5200E9432210E945C1F17
:1029C0006B017C01DC17F0F470E021E030E040E0C6
:1029D00050E04DC069017A01CC0CDD1CEE1CFF1CDF
:1029E000D701C601880F991FAA1FBB1F880F991F07
:1029F000AA1FBB1FA7019601280F391F4A1F5B1F83
:102A00006F5F05C060E021E030E040E050E0E62F7D
:102A1000F0E08D2F90E08C1B9109E817F907D4F2B4
:102A2000612F70E080E090E00E949C25CA01B9010E
:102A30002AE030E040E050E00E949C25862F2EC026
:102A400089019A01000F111F221F331FD901C801EC
:102A5000880F991FAA1FBB1F880F991FAA1FBB1F92
:102A6000A9019801280F391F4A1F5B1F7F5FE72FBD
:102A7000F0E08D2F90E004968C1B9109E817F90780
:102A8000FCF2C701B6010E949C25CA01B9012AE0E7
:102A900030E040E050E00E949C25862FDF91CF91EE
:102AA0001F910F91FF90EF90DF90CF9008950F93BB
:102AB0001F93CF93C82F8E3040F48B01080F111D48
:102AC0000E946B13F801808341C082EF8C0F83302A
:102AD00040F48B010C0F111D0E941D14F80180831E
:102AE00035C08FEE8C0F853040F48B010C0F111D1B
:102AF0000E944C14F801808329C02AEE2C0F273045
:102B000088F48B010C0F111D4091496050914A606F
:102B100060914B6070914C6082E00E94A914F801B2
:102B2000808314C023EE2C0F283080F48B010C0F0F
:102B3000111D40914D6050914E6060914F607091B9
:102B4000506083E00E94A914F801808381E08C0F1B
:102B5000CF911F910F9108954F925F926F927F9244
:102B60008F929F92AF92BF92CF92DF92EF92FF929D
:102B70000F931F93CF93DF934C01462EE0E020E0AC
:102B800030E040E050E060E070E080E090E02EC097
:102B900001E00E941027522E632E742ED52FC62FCF
:102BA000B72FA82FF92F02E00E941027A22EB32ED4
:102BB000C42ED52EE62EF72E082F192F252D362DB3
:102BC000472D5D2F6C2F7B2F8A2F9F2F0E94472729
:102BD000D401AE0FB11DAC90B12CC12CD12CE12C85
:102BE000F12C00E010E00E944727EF5FE41580F22F
:102BF000DF91CF911F910F91FF90EF90DF90CF90D9
:102C0000BF90AF909F908F907F906F905F904F900C
:102C10000895882329F088279927861B970B089504
:102C2000CB010895882321F0CB01BA019058089573
:102C3000CB01BA0108952F923F924F925F926F920B
:102C40007F928F929F92AF92BF92CF92DF92EF923C
:102C5000FF920F931F93CF93DF93CDB7DEB72697E5
:102C6000CDBFDEBF8D839E832B0162E00F960E9455
:102C7000AC15622F732FAD81BE811E968C910E9480
:102C80000916182F64E08D819E8142960E94AC1532
:102C9000622F732FED81FE8181890E94091689833D
:102CA0009A8366E08D819E8147960E94AC150E94B2
:102CB0008B1F20E030E44CE156E40E94E31EAB01A0
:102CC000BC01AD81BE8156968C910E941216F62EE3
:102CD000D72EC82EB92E67E08D819E814E960E9418
:102CE000AC150E948B1F20E030E44CE156E40E94BA
:102CF000E31EAB01BC01ED81FE81858D0E941216A1
:102D00006B83672E782EA92EAD81BE811C96EC9028
:102D10001C971D96AC91ED81FE81528523853085EF
:102D2000F185FC83ED81FE814681B78194808580A9
:102D3000008168EE73E0069FC001079F900D11248B
:102D400061811C01F4E66F9F200C311C1124ED8180
:102D5000FE81828190E0BC01660F771F880F991F6A
:102D6000880F991F880F991F860F971F820D931D3B
:102D70007381EE2DEE0FEE2EEE0CEE0CEE0DEE2E20
:102D8000EA0E550F052F000F000F500F052F020FF1
:102D9000330F232F220F220F320F2C81230F440FCA
:102DA000342F330F330F430F4B0F990C692D660FE0
:102DB000660F960E692D680D870F911D0E94A8075A
:102DC0008130D1F4F1E0FF9383E08F938DE397E6B8
:102DD0009F938F930E94E30F21E02F9384E08F93C2
:102DE00088E497E69F938F930E94E30FD2011C9291
:102DF000CDBFDEBF85E1FDC0812F0E940D0881306F
:102E000091F48F9383E08F9382E597E69F938F935E
:102E10000E94E30F8EE0D2018C930F900F900F90E1
:102E20000F9085E1E6C089819A810E941408813063
:102E3000D9F4B1E0BF9383E08F9384E697E69F9344
:102E40008F930E94E30FE1E0EF9384E08F9383E799
:102E500097E69F938F930E94E30F81E1D2018C93B9
:102E6000CDBFDEBF85E1C5C06F2D7D2D8C2D9B2D87
:102E70000E941D08813091F48F9383E08F9384E842
:102E800097E69F938F930E94E30F86E1D2018C9384
:102E90000F900F900F900F9085E1ABC05B81652F75
:102EA000762D872D9A2D0E943F08813091F48F93C3
:102EB00083E08F9384E997E69F938F930E94E30FBB
:102EC0008EE1F20180830F900F900F900F9085E1BB
:102ED00090C0D2011C92EE24E394EF9283E08F9392
:102EE00085EA97E69F938F930E94E30F0F2EF0E6FB
:102EF0008F2EF4E09F2EF02D00E2F40106838FE583
:102F00009AEE0197F1F700C00000AD81BE811D96D9
:102F10002C901D971C963C901C971B964C901B97D1
:102F20001A96FC911A971996EC91199718967C911C
:102F3000189717966C91179716965C911697159699
:102F40004C91159714963C91149713962C911397C6
:102F500012969C91129711968C911197BC91BC83FB
:102F6000AF927F926F92AB81AF93BF92CF92DF927D
:102F7000FF92A12F012E000CBB0BBF931F931F923A
:102F80002F921F923F921F924F921F92FF931F9278
:102F9000EF931F927F931F926F931F925F931F92E5
:102FA0004F931F923F931F922F931F929F931F92B5
:102FB0008F931F92BC81BF938EEA97E69F938F9366
:102FC000EF920E947A10E981FA81E0935A60F093BF
:102FD0005B60D40115960C93ECE5F0E684EF92E487
:102FE0008087918782E99EE086839783CDBFDEBF8D
:102FF00080E0FFEF2DE339E4F15020403040E1F76D
:1030000000C0000080935D692696CDBFDEBFDF91D2
:10301000CF911F910F91FF90EF90DF90CF90BF90D5
:10302000AF909F908F907F906F905F904F903F9068
:103030002F90089580915C698A3021F40E94420F9C
:1030400010925D69089591E09F938F938FED97E6BD
:103050009F938F930E94E30F0F900F900F900F900C
:1030600008951F93CF93DF9346EB59E667EB79E61C
:103070008DED99E60E94CA1180915360813021F450
:1030800083E00E94231841C080915C698A30C1F0BE
:103090008C30B1F00E94FA0B8111FCCF90915C69E9
:1030A000992399F12091B669E22FF0E09B3009F461
:1030B000982FE352F64990832F5F2093B66925C07D
:1030C0008A3041F49091B669992321F09150909300
:1030D000B6691BC08C30C9F46DED79E68091B66994
:1030E0000E9457158093B669863279F4C0E4D4E023
:1030F00018E01D830E94420F66EB79E68DED99E69C
:103100000E941B160E94420F1E838091B669811196
:1031100002C00E941A18DF91CF911F910895DF928B
:10312000EF92FF920F931F93CF93DF931F921F9203
:103130008EEE97E69F938F930E94E30F08E610E6CA
:10314000F80164817581868197810E94551F862FC1
:10315000062E000C990B9F936F93C2E0CF931F92A2
:103160008BEF97E69F938F930E94E30F1F92D1E01E
:10317000DF9380E098E69F938F930E94E30F609126
:1031800005607091066080910760909108600E94D0
:103190005C1F7F936F93CF93DF938AE098E69F93B2
:1031A0008F930E94E30F1F92CF9380E198E69F9345
:1031B0008F930E94E30FF801608571858285938566
:1031C0000E945C1F1F926F93CF93CF938AE198E682
:1031D0009F938F930E94E30F1F9213E01F938FE141
:1031E00098E69F938F930E94E30F2DB73EB72E5D15
:1031F0003F4F2DBF3EBF0E94F5109F938F93DF93EB
:103200001F9389E298E69F938F930E94E30FE9E86A
:10321000F9E681818F9380818F93CF931F9384E30D
:1032200098E69F938F930E94E30F1F9214E01F93E1
:103230008BE398E69F938F930E94E30FECE5F0E613
:1032400083858F9382858F93CF931F9388E498E62D
:103250009F938F930E94E30FDF9385E08F938EE41B
:1032600098E69F938F930E94E30F80915360EDB790
:10327000FEB77A96EDBFFEBF813021F486E00E9452
:1032800023188BC0CBE3D0E64C815D812A813B8142
:10329000888199815F934F933F932F939F938F934F
:1032A0001F920F2EF6E0DF2EF02DDF9284E698E6D7
:1032B0009F938F930E94E30F0F2EFCE5EF2EF0E615
:1032C000FF2EF02DF70140855185FA01F695E7951F
:1032D000F695E7959F01ABE7B4E10E94C42596956A
:1032E000879504E6089F9001099F300D1124421B29
:1032F000530B5F934F939F010E94C425969587952A
:103300009F938F9312E01F93DF9285E798E69F9338
:103310008F930E94E30F4A855B85288539858E81CE
:103320009F815F934F933F932F939F938F931F9210
:10333000C7E0CF938FE798E69F938F930E94E30FA8
:10334000F70146815781FA01F695E795F695E795DD
:103350009F01ABE7B4E10E94C42596958795089F2D
:103360009001099F300D1124421B530B5F934F9323
:103370009F010E94C425969587959F938F931F93D5
:10338000CF9383E998E69F938F930E94E30F2DB725
:103390003EB72C5D3F4F2DBF3EBFDF91CF911F91B8
:1033A0000F91FF90EF90DF900895DF92EF92FF92E0
:1033B0000F931F93CF93DF93C1E0CF931F928DE9BB
:1033C00098E69F938F930E94E30FCF93CF938EE461
:1033D00098E69F938F930E94E30F809153602DB7DF
:1033E0003EB7285F3F4F2DBF3EBF813021F483E0C1
:1033F0000E9423181CC11F9212E01F938EEE98E6C4
:103400009F938F930E94E30FCBE3D0E6EC84FD847F
:10341000AA85BB85E885F9856E817F814C815D81B8
:103420002A813B8188819981FF92EF92BF93AF936C
:10343000FF93EF937F936F935F934F933F932F93FC
:103440009F938F931F931F9387EA98E69F938F9381
:103450000E94E30F1F9203E00F9381EC98E69F9385
:103460008F930E94E30F8F898F938E898F931F9381
:103470000F938CE896E69F938F930E94E30F8DB78E
:103480009EB780968DBF9EBF1F92C4E0CF9386ECFF
:1034900098E69F938F930E94E30F0F2EFCE5EF2E8B
:1034A000F0E6FF2EF02DF70144815581FA01F695E3
:1034B000E795F695E7959F01ABE7B4E10E94C42537
:1034C0009695879504E6089F9001099F300D112479
:1034D000421B530B5F934F939F010E94C425969507
:1034E00087959F938F931F93CF9385E798E69F933C
:1034F0008F930E94E30F1F92C5E0CF938AED98E669
:103500009F938F930E94E30FF70140815181FA014D
:10351000F695E795F695E7959F01ABE7B4E10E9434
:10352000C42596958795089F9001099F300D112419
:10353000421B530B5F934F939F010E94C4259695A6
:1035400087959F938F931F93CF93C3E9D8E6DF931B
:10355000CF930E94E30F1F920F2EF6E0DF2EF02D87
:10356000DF928AEC98E69F938F930E94E30FF70116
:1035700046815781FA01F695E795F695E7959F0103
:10358000ABE7B4E10E94C42596958795089F90010A
:10359000099F300D1124421B530B5F934F939F01E2
:1035A0000E94C425969587959F938F931F93DF92D2
:1035B000DF93CF930E94E30F8DB79EB784968DBFA4
:1035C0009EBF1F920F2EF7E0DF2EF02DDF9282EDCF
:1035D00098E69F938F930E94E30FF70142815381F6
:1035E000FA01F695E795F695E7959F01ABE7B4E10B
:1035F0000E94C42596958795089F9001099F300DDC
:103600001124421B530B5F934F939F010E94C425CB
:10361000969587959F938F931F93DF92DF93CF9318
:103620000E94E30F8DB79EB70C968DBF9EBF0E9480
:103630001A18DF91CF911F910F91FF90EF90DF90BB
:1036400008950F931F93CF93DF93C1E0CF931F9201
:103650008EED98E69F938F930E94E30FCF93CF93C5
:103660008EE498E69F938F930E94E30F80915360BE
:103670002DB73EB7285F3F4F2DBF3EBF813021F4AD
:1036800083E00E94231850C01F9212E01F938CEE1B
:1036900098E69F938F930E94E30FCBE3D0E689894E
:1036A0008F9388898F938F858F938E858F931F93A8
:1036B0001F9381EF98E69F938F930E94E30F1F92D1
:1036C00003E00F9388EF98E69F938F930E94E30F98
:1036D0008D898F938C898F938B898F938A898F9310
:1036E0001F930F938EEF98E69F938F930E94E30FA3
:1036F0001F92C4E0CF9385E099E69F938F930E9439
:10370000E30F80915B608F9380915A608F931F933A
:10371000CF938AE099E69F938F930E94E30F8DB732
:103720009EB782968DBF9EBF0E941A18DF91CF91DF
:103730001F910F910895DF92EF92FF920F931F93C5
:10374000CF93DF93D1E0DF931F928EE099E69F93B2
:103750008F930E94E30FDF93DF938EE498E69F93AD
:103760008F930E94E30F1F92C2E0CF938FE199E6FF
:103770009F938F930E94E30F0F2EF0E0EF2EF0E661
:10378000FF2EF02DF70181819281A381B481BF9337
:10379000AF939F938F93CF93CF9307E219E61F9335
:1037A0000F930E94E30FF70185819681A781B08571
:1037B000BF93AF939F938F93CF9383E08F938FE2C9
:1037C00099E69F938F930E94E30F1F926894DD24E4
:1037D000D2F8DF9288E399E69F938F930E94E30FDC
:1037E0000F2EF8E6EF2EF0E6FF2EF02DF701848184
:1037F0009581A681B7812DB73EB7205E3F4F2DBF83
:103800003EBFBF93AF939F938F93DF93DF921F933E
:103810000F930E94E30FF70180859185A285B38500
:10382000BF93AF939F938F93CF93DF928FE399E6EC
:103830009F938F930E94E30F1F9215E01F938BE3DA
:1038400098E69F938F930E94E30FECE5F0E6838563
:103850008F9382858F93CF931F9387E499E69F93ED
:103860008F930E94E30F1F9216E01F938FE198E65B
:103870009F938F930E94E30FEEE5F9E60081F180BC
:103880000E94F510FF920F939F938F93DF931F93E6
:103890008CE499E69F938F930E94E30F2DB73EB778
:1038A0002A5D3F4F2DBF3EBFE9E8F9E681818F9346
:1038B00080818F93CF931F9384E398E69F938F9398
:1038C0000E94E30F0E941A180F900F900F900F9014
:1038D0000F900F90DF91CF911F910F91FF90EF907C
:1038E000DF900895CF92DF92EF92FF92CF93DF9314
:1038F000C091B863D091B96360916C6070916D6054
:1039000080916E6090916F6020E030E040E251E481
:103910000E94C5200E94551FC617D70709F06DC029
:10392000C091BC63D091BD63609170607091716013
:10393000809172609091736020E030E040E251E449
:103940000E94C5200E945C1FC617D70709F057C008
:10395000C090BE63D090BF63E090C063F090C1633D
:103960006091056070910660809107609091086099
:1039700020E030E048EC52E40E94C5200E945C1F29
:10398000C616D706E806F906E1F58091C26390E015
:1039900020915E6930915F6982179307A1F580914C
:1039A000C36390E02091896930918A6982179307F7
:1039B00061F52091C4633091C563809166609091F8
:1039C00067602817390719F5C091BA63D091BB63B6
:1039D0006091016070910260809103609091046039
:1039E00020E030E040E251E40E94C5200E94551FD3
:1039F000C617D70771F081E00DC081E00BC081E0F0
:103A000009C081E007C081E005C081E003C081E01A
:103A100001C080E0DF91CF91FF90EF90DF90CF90D9
:103A200008952091C6633091C763409160605091C2
:103A3000616064E6649FC001659F900D11242817A2
:103A40003907E1F42091C8633091C96340915C600B
:103A500050915D60649FC001659F900D11242817EF
:103A6000390771F48091CA6390E0209145603091EC
:103A700046608217930731F081E0089581E0089550
:103A800081E0089580E00895CF930E94721CC82FB2
:103A9000811105C00E94111D811103C003C081E086
:103AA00001C081E0982F917080915D698631C9F0E5
:103AB00018F4853131F03FC0873101F1883181F14F
:103AC0003AC08091E363811106C090915C69809156
:103AD000CC63981711F10E94311881E08093E36361
:103AE0001CC08091E463811104C00E94111D8823D1
:103AF000A1F00E94D5191092E4630FC08091E56394
:103B0000811104C08091CD63811107C00E94211BE7
:103B1000E8EBF3E615A681E0858B80E090E02CC011
:103B20008091E663811102C0CC23B9F30E949B1BF4
:103B30001092E663F2CF8091CE63811102C0992387
:103B400061F30E948F181092CE63E7CF20915D69D8
:103B500030E08217930741F4FC01E854FC492689C0
:103B6000222321F021E003C021E001C020E0FC017C
:103B7000E854FC49268B0196853091053CF39091E1
:103B80005D6981E0973109F080E08093CD63CF914A
:103B900008950F931F93CF93DF9308E610E6F80183
:103BA000648175818681978120E030E040E251E4B4
:103BB0000E94C5200E94551FC8EBD3E66883798315
:103BC000F801608571858285938520E030E040E2D0
:103BD00051E40E94C5200E945C1F6C837D8300E03D
:103BE00010E6F801658176818781908520E030E0DC
:103BF00048EC52E40E94C5200E945C1F6E837F83C4
:103C000088879987F801618172818381948120E09E
:103C100030E040E251E40E94C5200E94551F6A83B3
:103C20007B8380915E698A87809189698B87ECE5C7
:103C3000F0E6828593858C879D874481558184E653
:103C4000849F9001859F300D11242E873F874081EE
:103C50005181849F9001859F300D1124288B398BD1
:103C600080914560909146608A8B80915C698C8BD5
:103C7000DF91CF911F910F9108950E94441D0E94E2
:103C8000C91D08955058BB27AA270E945A1E0C949C
:103C90007E200E94702038F00E94772020F039F4B6
:103CA0009F3F19F426F40C9436200EF4E095E7FBC0
:103CB0000C943020E92F0E948F2058F3BA17620726
:103CC00073078407950720F079F4A6F50C94B120CA
:103CD0000EF4E0950B2EBA2FA02D0B01B901900127
:103CE0000C01CA01A0011124FF27591B99F0593F6B
:103CF00050F4503E68F11A16F040A22F232F342FB3
:103D00004427585FF3CF469537952795A795F04000
:103D10005395C9F77EF41F16BA0B620B730B840B15
:103D2000BAF09150A1F0FF0FBB1F661F771F881FCD
:103D3000C2F70EC0BA0F621F731F841F48F4879525
:103D400077956795B795F7959E3F08F0B0CF939517
:103D5000880F08F09927EE0F979587950895DF93C0
:103D6000DD27B92FBF7740E85FE31616170648072F
:103D70005B0718F4D92F0E94BD209F938F937F93E8
:103D80006F930E945621EAEBF0E00E9449200E94C6
:103D90007E202F913F914F915F910E94D820DD238B
:103DA00051F09058A2EA2AED3FE049EC5FE3D07869
:103DB0005D270E945A1EDF910C947E200E940C20E9
:103DC00008F481E008950E94F71E0C947E200E9462
:103DD000772058F00E94702040F029F45F3F29F0CE
:103DE0000C94302051110C94B2200C9436200E9477
:103DF0008F2068F39923B1F3552391F3951B550B4D
:103E0000BB27AA2762177307840738F09F5F5F4FAD
:103E1000220F331F441FAA1FA9F335D00E2E3AF0EC
:103E2000E0E832D091505040E695001CCAF72BD004
:103E3000FE2F29D0660F771F881FBB1F2617370755
:103E40004807AB07B0E809F0BB0B802DBF01FF2787
:103E500093585F4F3AF09E3F510578F00C94302014
:103E60000C94B2205F3FE4F3983ED4F386957795A7
:103E70006795B795F7959F5FC9F7880F911D969540
:103E8000879597F90895E1E0660F771F881FBB1F9C
:103E9000621773078407BA0720F0621B730B840B49
:103EA000BA0BEE1F88F7E09508950E945C1F689496
:103EB000B1110C94B22008950E94972088F09F576A
:103EC00098F0B92F9927B751B0F0E1F0660F771F3E
:103ED000881F991F1AF0BA95C9F714C0B13091F034
:103EE0000E94B120B1E008950C94B120672F782F83
:103EF0008827B85F39F0B93FCCF3869577956795F9
:103F0000B395D9F73EF490958095709561957F4F64
:103F10008F4F9F4F089597FB16F40E9439200C9401
:103F2000CF1FE89409C097FB3EF49095809570955B
:103F300061957F4F8F4F9F4F9923A9F0F92F96E9F5
:103F4000BB279395F695879577956795B795F1116A
:103F5000F8CFFAF4BB0F11F460FF1BC06F5F7F4F07
:103F60008F4F9F4F16C0882311F096E911C0772319
:103F700021F09EE8872F762F05C0662371F096E822
:103F8000862F70E060E02AF09A95660F771F881FF1
:103F9000DAF7880F9695879597F90895E894F92FA1
:103FA00096EBFF2381F0121613061406440B93952B
:103FB000F69587957795679557954040FF23B9F714
:103FC0001BC099270895882351F49850D2F7872B66
:103FD000762F652F542F432F322F20E0B1F3121686
:103FE00013061406440B88233AF09A95440F551F84
:103FF000661F771F881FCAF755234AF4440F551FC1
:1040000011F460FF04C06F5F7F4F8F4F9F4F880F89
:104010009695879597F90895990F0008550FAA0B63
:10402000E0E8FEEF16161706E807F907C0F01216CB
:104030001306E407F50798F0621B730B840B950BCE
:1040400039F40A2661F0232B242B252B21F4089523
:104050000A2609F4A140A6958FEF811D811D0895C0
:1040600097F99F6780E870E060E008959FEF80EC2B
:1040700008959095809570956095509540953095F0
:1040800021953F4F4F4F5F4F6F4F7F4F8F4F9F4F48
:104090000895DF93CF931F930F93FF92EF92DF92D8
:1040A0007B018C01689406C0DA2EEF010E94D820B3
:1040B000FE01E894A5912591359145915591A6F37E
:1040C000EF010E945A1EFE019701A801DA9469F7D8
:1040D000DF90EF90FF900F911F91CF91DF910895A6
:1040E00000240A94161617061806090608950024D7
:1040F0000A9412161306140605060895092E039451
:10410000000C11F4882352F0BB0F40F4BF2B11F4C4
:1041100060FF04C06F5F7F4F8F4F9F4F089557FD23
:104120009058440F551F59F05F3F71F04795880F25
:1041300097FB991F61F09F3F79F0879508951216BC
:1041400013061406551FF2CF4695F1DF08C0161668
:1041500017061806991FF1CF869571056105089419
:104160000895E894BB2766277727CB0197F9089530
:104170000E940C2008F48FEF08959B01AC0160E0D1
:1041800070E080E89FE30C94E31E0E94D8200C941A
:104190007E200E94702038F00E94772020F0952326
:1041A00011F00C9430200C94362011240C94B22081
:1041B0000E948F2070F3959FC1F3950F50E0551F1B
:1041C000629FF001729FBB27F00DB11D639FAA276C
:1041D000F00DB11DAA1F649F6627B00DA11D661FBB
:1041E000829F2227B00DA11D621F739FB00DA11DDC
:1041F000621F839FA00D611D221F749F3327A00D96
:10420000611D231F849F600D211D822F762F6A2F31
:1042100011249F5750409AF0F1F088234AF0EE0F96
:10422000FF1FBB1F661F771F881F91505040A9F7C3
:104230009E3F510580F00C9430200C94B2205F3FDB
:10424000E4F3983ED4F3869577956795B795F795FF
:10425000E7959F5FC1F7FE2B880F911D9695879577
:1042600097F908950E949720E8F09E37E8F0963974
:10427000B8F49E3848F4672F782F8827985FF9CFD5
:1042800086957795679593959539D0F3B62FB1704C
:104290006B0F711D811D20F4879577956795939518
:1042A0000C947F210C949A210C94B2209B01AC01B8
:1042B0000C94C520DF93D92F0E94BE21E695D79597
:1042C0002AED3FE049E45FE3B33A620773078407EE
:1042D0009507D7953AF0A2EA49EC90680E945A1ED9
:1042E0000E947E20E7EEF0E00E94A821DD0F13F08F
:1042F0000E94BD20DD0F0BF49058DF9108958823B4
:1043000071F4772321F09850872B762F07C066230E
:1043100011F499270DC09051862B70E060E02AF0CF
:104320009A95660F771F881FDAF7880F96958795FD
:1043300097F908959F3F31F0915020F48795779534
:104340006795B795880F911D9695879597F908956C
:104350009F938F937F936F93FF93EF939B01AC0198
:104360000E94C520EF91FF910E9449202F913F911B
:104370004F915F910C94C5200C9436200E94972099
:10438000D8F3E894E0E0BB279F57F0F02AED3FE038
:1043900049EC06C0EE0FBB0F661F771F881F28F081
:1043A000B23A62077307840728F0B25A620B730BA4
:1043B000840BE3959A9572F7803830F49A95BB0F89
:1043C000661F771F881FD2F790480C949C21A0E1AC
:1043D000B0E0EDEEF1E20C94DF267C011B016A01F6
:1043E000FC0116821782838181FF44C39E012F5FE7
:1043F0003F4F3901F7019381F10193FD859193FFBF
:1044000081911F01882309F431C3853239F493FD6A
:10441000859193FF81911F01853239F4B70190E0B6
:104420000E94A92856016501E5CF10E0512C912C7E
:10443000FFE1F915D8F08B3279F038F4803279F059
:104440008332A1F4F92DF0612EC08D3261F08033FA
:1044500069F4292D21602DC0392D3260932E892DCC
:104460008460982E2AC0E92DE86015C097FC2DC005
:1044700020ED280F2A3088F496FE06C03AE0139FFC
:10448000200D1124122F19C08AE0589E200D1124EE
:10449000522EE92DE0629E2E10C08E3231F496FC31
:1044A000E5C2F92DF0649F2E08C08C3621F4292D29
:1044B0002068922E02C0883641F4F10193FD859167
:1044C00093FF81911F018111B3CF9BEB980F933024
:1044D00020F4992D9061805E07C09BE9980F93307E
:1044E00008F066C1992D9F7E96FF16E09F73992E66
:1044F000853619F49064992E08C0863621F4392F38
:104500003068932E02C01111115097FE07C01C3362
:1045100050F444244394410E27E00BC0183038F087
:1045200027E017E005C027E09CE3492E02C0212FB9
:10453000412C560184E0A80EB11CF6016081718106
:1045400082819381042DA3010E9487276C01F98148
:10455000FC87F0FF02C0F3FF06C091FC06C092FE8C
:1045600006C000E205C00DE203C00BE201C000E09E
:104570008C858C7019F001115AC29BC297FE10C035
:104580004C0CFC85F4FF04C08A81813309F44A9401
:10459000141474F528E0241578F588E0482E2CC012
:1045A00096FC2AC0812F90E08C159D059CF03CEF75
:1045B000C3163FEFD30674F0892D8068982E0AC089
:1045C000E2E0F0E0EC0FFD1FE10FF11D8081803390
:1045D00019F411501111F4CF97FE0EC044244394E6
:1045E000410E812F90E0C816D9062CF41C1904C086
:1045F0004424439401C010E097FE06C01C141D041F
:1046000034F4C601019605C085E090E002C081E067
:1046100090E001110196112331F0212F30E02F5F3E
:104620003F4F820F931F252D30E08217930714F41C
:10463000581A01C0512C892D897049F4552039F040
:10464000B70180E290E00E94A9285A94F7CF002396
:1046500029F0B701802F90E00E94A92893FC09C09F
:10466000552039F0B70180E390E00E94A9285A94C0
:10467000F7CF97FE4CC04601D7FE02C0812C912C8B
:10468000C60188199909F301E80FF91FED87FE8724
:104690009601241931092F87388B012F10E01195CD
:1046A000019511093FEF8316930629F4B7018EE2B5
:1046B00090E00E94A928C814D9044CF08F859889ED
:1046C0008815990524F4ED85FE85818101C080E37C
:1046D000F1E08F1A91082D853E852F5F3F4F2D8782
:1046E0003E87801691062CF0B70190E00E94A92821
:1046F000D9CFC814D90441F49A81963320F4953364
:1047000019F43C8534FF81E3B70190E04EC08A8103
:10471000813319F09C859F7E9C87B70190E00E94B1
:10472000A928111105C094FC18C085E690E017C0B7
:10473000B7018EE290E00E94A9281E5F82E001E0AE
:10474000080FF301E80FF11D8081B70190E00E948E
:10475000A928802F0113F3CFE6CF85E490E0B701BD
:104760000E94A928D7FC06C0C114D10441F4EC85ED
:10477000E4FF05C0D194C194D1088DE201C08BE261
:10478000B70190E00E94A92880E32AE0C216D10474
:104790002CF08F5FFAE0CF1AD108F7CFB70190E085
:1047A0000E94A928B701C601C0960E94A92854C139
:1047B000833631F0833779F0833509F056C020C055
:1047C000560132E0A30EB11CF6018081898301E01D
:1047D00010E0630112C05601F2E0AF0EB11CF60109
:1047E000C080D18096FE03C0612F70E002C06FEFE1
:1047F0007FEFC6010E946F288C01F92DFF7714C04E
:10480000560122E0A20EB11CF601C080D18096FEB6
:1048100003C0612F70E002C06FEF7FEFC6010E94FE
:104820005F288C01F92DF0689F2EF3FD1AC0852DAD
:1048300090E008171907A8F4B70180E290E00E9401
:10484000A9285A94F4CFF60197FC859197FE81919F
:104850006F01B70190E00E94A92851105A940150AD
:1048600011090115110579F7F7C0843611F0893661
:1048700061F5560197FE09C024E0A20EB11CF601B5
:1048800060817181828193810AC0F2E0AF0EB11C18
:10489000F60160817181072E000C880B990BF92DB0
:1048A000FF769F2E97FF09C0909580957095619532
:1048B0007F4F8F4F9F4FF0689F2E2AE030E0A3017B
:1048C0000E942A29C82EC6183FC0092D853721F419
:1048D0000F7E2AE030E01DC0097F8F3691F018F47A
:1048E000883559F0C3C0803719F0883711F0BEC041
:1048F000006104FF09C0046007C094FE08C00660A0
:1049000006C028E030E005C020E130E002C020E130
:1049100032E0560107FF09C084E0A80EB11CF60181
:10492000608171818281938108C0F2E0AF0EB11C79
:10493000F6016081718180E090E0A3010E942A2944
:10494000C82EC6180F77902E96FE0BC0092D0E7F2D
:10495000C11650F494FE0AC092FC08C0092D0E7EC8
:1049600005C0DC2C092D03C0DC2C01C0D12E04FFB6
:104970000DC0FE01EC0DF11D8081803311F4097E24
:1049800009C002FF06C0D394D39404C0802F867858
:1049900009F0D39403FD11C000FF06C01C2DD514EF
:1049A00080F4150D1D190DC0D51458F4B70180E21F
:1049B00090E00E94A928D394F7CFD51410F45D1885
:1049C00001C0512C04FF10C0B70180E390E00E94A9
:1049D000A92802FF17C001FD03C088E790E002C0CC
:1049E00088E590E0B7010CC0802F867859F001FF70
:1049F00002C08BE201C080E207FD8DE2B70190E0CA
:104A00000E94A928C11638F4B70180E390E00E9403
:104A1000A9281150F7CFCA94F301EC0DF11D808144
:104A2000B70190E00E94A928C110F5CF15C0F4E0AD
:104A3000F51560F584E0581A93FE1FC0011127C0D8
:104A40002C8523FF2AC00AE011E0392D3071932E06
:104A5000F8018491811124C0552009F4E4CCB701F8
:104A600080E290E00E94A9285A94F6CFF70186814F
:104A7000978126C08FEF9FEF23C0B70180E290E0BF
:104A80000E94A9285A945110F8CFD8CF512CB701C1
:104A9000802F90E00E94A928D3CF0EE011E0D5CF5F
:104AA00091108052B70190E00E94A9280F5F1F4F1C
:104AB000CFCF23E0251510F483E0BDCF512CC0CF1C
:104AC0006096E2E10C94F826DB018F939F930E949D
:104AD000D325BF91AF91A29F800D911DA39F900DF3
:104AE000B29F900D11240895AA1BBB1B51E107C072
:104AF000AA1FBB1FA617B70710F0A61BB70B881F6E
:104B0000991F5A95A9F780959095BC01CD010895FC
:104B100097FB072E16F4009407D077FD09D00E946A
:104B2000742507FC05D03EF4909581959F4F08951C
:104B3000709561957F4F0895A1E21A2EAA1BBB1BA9
:104B4000FD010DC0AA1FBB1FEE1FFF1FA217B30759
:104B5000E407F50720F0A21BB30BE40BF50B661F6F
:104B6000771F881F991F1A9469F760957095809533
:104B700090959B01AC01BD01CF010895EE0FFF1F81
:104B80000590F491E02D0994A29FB001B39FC0015C
:104B9000A39F700D811D1124911DB29F700D811D69
:104BA0001124911D08950E94C425A59F900DB49FC6
:104BB000900DA49F800D911D11240895B7FF0C94B2
:104BC000D3250E94D325821B930B0895DF93CF93A7
:104BD0001F930F939A9DF02D219FF00D8B9DF00D4B
:104BE0008A9DE02DF10D039FF00D029FE00DF11D58
:104BF0004E9DE00DF11D5E9DF00D4F9DF00D7F93DC
:104C00006F93BF92AF925F934F93D5010E94C425DB
:104C10008B01AC01D7010E94C425EB01E80FF91FFD
:104C2000D6010E9436262F913F91D6010E94C425BD
:104C3000C60FD71FE81FF91FAF91BF910E943626FC
:104C40002F913F910E94C425C60FD71FE81FF91F5F
:104C5000D6010E94C425E60FF71F9801BE01CF01BF
:104C600011240F911F91CF91DF9108950E94C425C7
:104C7000460F571FC81FD91F08F43196089568942E
:104C800001C0E894F92FF12B12F00C947326A0E0E8
:104C9000B0E0EDE4F6E20C94E526092E059422F44A
:104CA0000E94CF26112392F4F0E80F26FFEFE09444
:104CB000F09400951095B094C094D094A194BF0A3C
:104CC000CF0ADF0AEF0AFF0A0F0B1F0B0E947E2696
:104CD00007FC0E94CF26CDB7DEB7ECE00C94FE2691
:104CE000689401C0E8948F929F92CF93DF930E94C3
:104CF0007E26DF91CF919F908F90089588249924EC
:104D0000F401E401B0E49F93AA279A158B049C0454
:104D1000ED05FE05CF05D007A10798F4AD2FDC2FD8
:104D2000CF2FFE2FE92D982C892E982F872F762FA5
:104D3000652F542F432F322F2227B85031F7BF91C0
:104D400027C01B2EBF91BB27220F331F441F551FA7
:104D5000661F771F881F991F881C991CEE1FFF1F55
:104D6000CC1FDD1FAA1FBB1F8A149B04EC05FD0589
:104D7000CE05DF05A007B10748F08A189B08EC09AB
:104D8000FD09CE09DF09A00BB10B21601A94E1F6F1
:104D90002EF49401AF01BE01CD01000C0895609581
:104DA00070958095909530954095509521953F4F01
:104DB0004F4F5F4F6F4F7F4F8F4F9F4F08952F92F1
:104DC0003F924F925F926F927F928F929F92AF929B
:104DD000BF92CF92DF92EF92FF920F931F93CF93E8
:104DE000DF93CDB7DEB7CA1BDB0BCDBFDEBF0994A7
:104DF0002A88398848885F846E847D848C849B846B
:104E0000AA84B984C884DF80EE80FD800C811B8178
:104E1000AA81B981CE0FD11DCDBFDEBFED010895AE
:104E20000F93083090F0982F872F762F652F542FEF
:104E3000432F322F22270850F4CF220F331F441F55
:104E4000551F661F771F881F991F0A95B2F70F918C
:104E5000089597FB10F8169400080F93083098F007
:104E60000850232F342F452F562F672F782F892F47
:104E7000902DF4CF059497958795779567955795DD
:104E80004795379527950A95AAF70F9108952A0D0A
:104E90003B1D4C1D5D1D6E1D7F1D801F911F0895C4
:104EA0002A193B094C095D096E097F09800B910B9A
:104EB00008950024A7FD00942A17300540055005E9
:104EC00060057005800590050895662777270C9486
:104ED000352CFC0188279927E89421912032E9F3A9
:104EE000293010F02E30C8F32B3241F02D3239F436
:104EF000689404C00E94A128820F911D2191205323
:104F00002A30C0F31EF4909581959F4F0895283064
:104F100008F027E03327DA01990F311D87FD9160F2
:104F200000966105710539F432602E5F3D9330E3E0
:104F30002A95E1F708959F3F30F0803871056105AB
:104F400009F03C5F3C5F3D93913008F08068911D13
:104F5000DF93CF931F930F93FF92EF92192F987FB8
:104F60009695E92F96959695E90FFF27E459FE4F00
:104F700099273327EE24FF24A701E7010590089421
:104F8000079428F4360FE71EF81E491F511D660FBF
:104F9000771F881F991F0694A1F70590079428F49E
:104FA000E70EF81E491F561FC11D770F881F991F56
:104FB000661F0694A1F70590079428F4F80E491F80
:104FC000561FC71FD11D880F991F661F771F069494
:104FD000A1F70590079420F4490F561FC71FD81F4B
:104FE000990F661F771F881F0694A9F78491109563
:104FF000177041F0D695C79557954795F794E79464
:105000001A95C1F7E2E1F1E0689415901591359198
:105010006591959105907FE27395E118F10A430B34
:10502000560BC90BD009C0F7E10CF11E431F561FE8
:10503000C91FD01D7EF4703311F48A95E6CFE89431
:10504000015030F0080F0AF40027021708F4202F4F
:105050002395022F7A3328F079E37D932A95E9F797
:1050600010C07D932A9589F6069497956795379594
:1050700017951794E118F10A430B560BC90BD00989
:1050800098F023957E9173957A3308F070E37C93C2
:105090002013B8F77E9170617D9330F0839571E3B2
:1050A0007D9370E32A95E1F71124EF90FF900F9123
:1050B0001F91CF91DF91992787FD90950895FC016D
:1050C0000590615070400110D8F7809590958E0F33
:1050D0009F1F089546E559E60E947A280895FC012D
:1050E0006150704001900110D8F7809590958E0F17
:1050F0009F1F0895FA01A191B081009719F41097AC
:10510000E1F0CD01DC01CD010D90002011F4C001D2
:1051100013C0FB012191222319F02015D9F7F3CFF9
:10512000FB012191201519F41E92119606C022232D
:10513000C1F70D900020A1F7D001FA01A193B0832F
:1051400008957AE0979F902D879F802D910D1124CF
:1051500008950F931F93CF93DF93FB01238121FDCC
:1051600003C08FEF9FEF2CC022FF16C046815781EE
:10517000248135814217530744F4A081B1819D01F8
:105180002F5F3F4F208331838C93268137812F5FA0
:105190003F4F2683378314C08B01EC01FB01008451
:1051A000F185E02D0995892BE1F6D80116968D91B0
:1051B0009C911797019616968D939C931797CE0105
:1051C000DF91CF911F910F910895AEE0B0E0EBEE2B
:1051D000F8E20C94EF2685E08C838B899C89898387
:1051E0009A83AE01495E5F4F6D897E89CE0101963B
:1051F0000E94242B2E96E2E00C940827AEE0B0E04B
:10520000E4E0F9E20C94ED268C01FA0186E08C834F
:1052100009831A8377FF02C060E070E8CB01019731
:105220008D839E83A901BF01CE0101960E94E721D3
:105230004D815E8157FD0AC02F8138854217530783
:105240000CF49A01F801E20FF31F10822E96E4E0AD
:105250000C940627FA01AA27283051F1203181F158
:10526000E8946F936E7F6E5F7F4F8F4F9F4FAF4F6E
:10527000B1E03ED0B4E03CD0670F781F891F9A1F81
:10528000A11D680F791F8A1F911DA11D6A0F711D35
:10529000811D911DA11D20D009F468943F912AE041
:1052A000269F11243019305D3193DEF6CF01089529
:1052B000462F4770405D4193B3E00FD0C9F7F6CF5A
:1052C000462F4F70405D4A3318F0495D31FD405222
:1052D000419302D0A9F7EACFB4E0A69597958795B8
:1052E00077956795BA95C9F7009761057105089597
:1052F0009B01AC010A2E0694579547953795279543
:10530000BA95C9F7620F731F841F951FA01D0895DA
:1053100020FD09C0FC0123FD05C022FF02C07383EC
:10532000628351834083089544FD17C046FD17C032
:10533000AB01BC01DA01FB01AA0FBB1FEE1FFF1F6F
:105340001094D1F74A0F5B1F6E1F7F1FCB01BA016C
:10535000660F771F881F991F09C033E001C034E032
:10536000660F771F881F991F3150D1F7620F711D8B
:10537000811D911D08950F931F93CF93DF938C018F
:10538000C8010E94AF2DEC0197FD08C00E94832D3B
:10539000892BB1F7B801CE010E94ED2DCE01DF912E
:1053A000CF911F910F9108958F929F92AF92BF92CC
:1053B000EF92FF920F931F93CF93DF938C01D62F21
:1053C0007A01B22E0E94AF2D9C0133272B3231057A
:1053D00031F02D32310561F48B2D8068B82ED1501B
:1053E00011F480E068C0C8010E94AF2D97FDF9CF8D
:1053F000CB2DCD7F2B2D207309F58033F9F4AA2412
:10540000AA94AD0E09F443C0C8010E94AF2D97FDC8
:105410003EC09C012F7D33272835310549F4C264F5
:10542000D250A9F1C8010E94AF2D97FF07C02FC02D
:10543000B6FE02C0C26001C0C261DA2D812C912C7F
:10544000540120ED280F283080F0C4FF04C0B801BB
:105450000E94ED2D19C02A3040F0C6FFF8CF2F7DF5
:105460003FEE320F363098F727504C2FC501B4016C
:105470000E9494294B015C01C260D15059F0C801CF
:105480000E94AF2D97FFDDCFC1FD04C0AACF812CB4
:10549000912C5401C7FF08C0B094A09490948094BC
:1054A000811C911CA11CB11C2C2FB501A401C701AA
:1054B0000E94882981E0DF91CF911F910F91FF9089
:1054C000EF90BF90AF909F908F900895A0E2B0E0D2
:1054D000ECE6FAE20C94E2265C01962E7A01F901E0
:1054E0008E010F5F1F4F680180E2D8011D928A95DF
:1054F000E9F7D50113968C9080E090E0612C712C37
:1055000030E061E070E083FC259183FE21918F0102
:10551000522E211103C080E090E092C02E3511F48C
:10552000009751F1432F50E0481759073CF42D35AF
:1055300059F12D3219F4772009F103C0772009F4CD
:105540006AC0452D469546954695D601A40FB11DD6
:10555000452D47708B0102C0000F111F4A95E2F7DD
:10556000A8015C91452B4C93651459F0561410F426
:105570005394E7CF5A94E5CF31E004C07724739475
:1055800001C0712C0196BFCF772019F08E81806207
:105590008E83311103C08824839417C0F6019E01C5
:1055A0002F5D3F4F8081809581932E173F07D1F764
:1055B000F2CFE114F10429F0D7018C93F701319671
:1055C0007F019A94812C9920F9F0C5010E94AF2D9A
:1055D00097FD18C0FC01FF2723E0F595E7952A9574
:1055E000E1F7EC0DFD1D208130E0AC01477055273F
:1055F00002C0359527954A95E2F720FDDACFB5012F
:105600000E94ED2D811087CFE114F10411F0D70134
:105610001C92C80115C0422F469546954695D60165
:10562000A40FB11D422F47708B0102C0000F111F44
:105630004A95E2F7A8015C91452B4C93622EA2CFCC
:10564000A096EFE00C94FB26A0E0B0E0EAE2FBE2DB
:105650000C94E2266C01EB015A01FC0116821782C0
:10566000512CF601E380FE01E3FC8591E3FE81917C
:10567000182FEF01882309F4EEC090E00E94832DDB
:10568000892B21F0C6010E94BB29EBCF153241F4D2
:10569000FE01E3FC1591E3FE1191EF01153281F457
:1056A000C6010E94AF2D97FDD4C0412F50E09C0150
:1056B000332724173507A9F2B6010E94ED2DCBC080
:1056C0001A3239F4E3FC1591E3FE1191EF0101E088
:1056D00001C000E0F12C20ED210F2A3080F402609F
:1056E0006F2D70E080E090E040E20E949429F62E59
:1056F000FE01E3FC1591E3FE1191EF01ECCF01FFF8
:1057000003C0F11003C0A7C0FF24FA94183619F0A3
:105710001C3651F010C0FE01E3FC1591E3FE11911F
:10572000EF01183641F408600460FE01E3FC1591B6
:10573000E3FE1191EF01112309F48DC0612F70E098
:105740008CE092E00E948C2D892B09F484C000FD2E
:1057500007C0F50180809180C50102965C0102C0FE
:10576000812C912C1E3651F4F6014681578160E060
:1057700070E0202FC4010E94882973CF1336A9F44A
:1057800001FD02C0FF24F394C6010E94AF2D97FDD6
:1057900060C08114910429F0F4018083C401019652
:1057A0004C01FA94F110F0CF50C01B3559F49E0112
:1057B000A4016F2DC6010E94662AEC01892B09F015
:1057C00044C03EC0C6010E94BB2997FD42C01F369F
:1057D00061F128F4143639F1193651F128C0133724
:1057E00071F0153701F123C08114910429F0F401FF
:1057F0006082C40101964C01FA94FF2071F0C60149
:105800000E94AF2D3C0197FD08C00E94832D892B7B
:1058100059F3B601C3010E94ED2D81149104A9F042
:10582000F401108212C0006203C0006101C0006474
:10583000202FA4016F2DC6010E94D429811105C01B
:10584000F6018381807329F406C000FD0ACF5394CA
:1058500008CF552019F0852D90E002C08FEF9FEF03
:10586000CDB7DEB7EFE00C94FB26A0E0B0E0EBE3B1
:10587000FCE20C94E526EC016B016115710519F051
:10588000FB01808391837E01FFEFEF1AFF0A0881FD
:10589000802F90E00E94832D892B11F0E701F3CF38
:1058A0000D3239F47E0182E0E80EF11C098111E02D
:1058B00008C00B3229F47E0192E0E90EF11C098147
:1058C00010E0E701219743E050E060E272E0CE0192
:1058D0000E94972D892BC1F4239645E050E06BE19F
:1058E00072E0CE010E94972D892B09F42596C114F0
:1058F000D10419F0F601C083D1831111F6C060E024
:1059000070E080E89FE7FAC043E050E068E172E0B1
:10591000CE010E94972D892B59F4C114D10409F4AA
:10592000E9C0F2E0EF0EF11CF601E082F182E2C084
:1059300020E030E0A901C0E0D0E0F70180EDA82E22
:10594000A00E89E08A1530F1912F9260B92E812F37
:10595000887012FF04C0811124C0219622C08111D9
:105960002197A5E0B0E00E94D325DC01CB01880F90
:10597000991FAA1FBB1F9C01AD012A0D311D411D9E
:10598000511D283989E93807480789E1580748F047
:10599000166006C09EEFA9120AC013FD40C0186031
:1059A000B12E8FEFE81AF80A00811B2DC6CF802F89
:1059B0008F7D8534A1F580818D3211F4106106C090
:1059C0008B3221F0319661E070E004C08181329623
:1059D00062E070E080538A3018F0E61BF70B1FC0BE
:1059E00060E070E060389CE079075CF4DB01AA0FAE
:1059F000BB1FAA0FBB1F6A0F7B1F660F771F680FA5
:105A0000711D3196DF0111978C9180538A3050F3CC
:105A100014FF03C0719561957109C60FD71F11FF5F
:105A200008C0C114D10429F0CF010197F601808389
:105A30009183CA01B9010E94911F212F2370233045
:105A400019F04B015C0106C04B015C01B7FAB09440
:105A5000B7F8B09420E030E0A901C501B4010E947C
:105A6000DE1E882309F43EC0D7FF06C0D195C1953C
:105A7000D10907E312E002C00FE412E06801F8E187
:105A8000CF1AD10890E2E92EF12CCE15DF0574F083
:105A9000F8012591359145915491C501B4010E94B9
:105AA000C5204B015C01CE19DF09EFCF045011096D
:105AB000F594E7940C151D0541F78A2D880F8B2D61
:105AC000881F8F3F49F020E030E0A901C501B401F3
:105AD0000E94DE1E811106C082E290E08093036A7C
